:030000000202B643
:0C02B600787FE4F6D8FD75816F0202FD30
:10063D0041542B43495053454E443D340D0A004F10
:10064D004B00303130303030000000003031303070
:10065D00303100000000000000000000000000002C
:0607C400010A1E01095AA2
:10000E00438901758CFC758A17D28CD2AFD2A92286
:0907BB0012078012076602000E0D
:0604C6008B678A6889695A
:1004CC00786A7C007D007BFF7A0679637E007F066C
:1004DC001200F6AB67AA68A96912011CFF75F00A35
:1004EC00842430F56AEF75F00A84E5F02430F56B5E
:1004FC00900002120135FF75F00A842430F56CEF80
:10050C0075F00A84E5F02430F56D756E0D756F0A83
:10051C007BFF7A06793D7D647C0012066D7556FF73
:10052C0075570675584C755900755A647B007A00DE
:05053C00796A0205B51B
:10044800784A7C007D007BFF7A0679697E007F040C
:100458001200F6754E00754F007550001207BBC2AA
:10046800901201B6EF7004C29780FE7590FF3000BD
:10047800097B007A00794A1205411206078B4E8AD9
:100488004F8950E94A4B6031C290755EFF755F062F
:1004980075604F1203C6E94A4B601EAB4EAA4FA9BE
:1004A8005090000612013524D075F00AA4FF900080
:0E04B8000712013524D02FF50A7590FF80B091
:03000B0002074B9E
:04074B00C0E0C0D07A
:10074F00758CFC758A170508E508B4C8057508008F
:02075F00B200E6
:05076100D0D0D0E03211
:10078000438920758DFD758BFDD28E439850D2AC78
:07079000D2AFC299C298220A
:1006C5008B5B8A5C895DAB5BAA5CA95D12011CFF33
:1006D50060101200037401255DF55DE4355CF55C81
:0306E50080E4228C
:080003008F993099FDC299228A
:0300230002069B37
:07069B00C0E0C0D075D010D3
:1006A20030981BAF9974212549F8A6177421254962
:0E06B200F8E6B40A0575490080020549C298B1
:0506C000D0D0D0E032B3
:100342002B4950442C383A0041540D0A004F4B00BF
:1003520041542B43574D4F44453D330D0A00415400
:100362002B43574A41503D2254502D4C494E4B5F2E
:10037200414345433334222C223130303836313137
:1003820031220D0A0041542B4349505354415254D7
:100392003D22544350222C223139322E3136382E0E
:1003A200312E313031222C383038300D0A00415490
:1003B2002B43495053454E443D340D0A0054584F87
:0403C2004B0D0A00D5
:10076600C2807F0A7E007D007C001206E8D2807F70
:0A0776000A7E007D007C000206E808
:1005B5008B538A5489557B007A007921755F28E42D
:1005C500FD12070AE4F549AB53AA54A9551206C50D
:1005D500AE59AF5AE4FCFD1206E8E549C394144050
:1005E50002C297E4F54985565E85575F855860FBDD
:1005F5007A0079211203C6E94A4B60037F01227F05
:020605000022D1
:10066D008B538A5489558C568D577B007A0079218E
:10067D00755F28E4FD12070AE4F549AB53AA54A9A6
:0E068D00551206C5AE56AF57E4FCFD0206E856
:10060700E549602B7F647E007D007C001206E8E4EC
:10061700F549755EFF755F03756042FB7A007921C6
:100627001203C6E94A4B60077B007A007928227BD0
:06063700007A00790022A8
:1001B600E4F551F552F5527F147E007D007C001265
:1001C600072B7556FF75570375584F755900755AA5
:1001D600647BFF7A03794A1205B5EF70030202A722
:1001E600C2917F147E007D007C0012072B7556FF9E
:1001F60075570375584F755900755A647BFF7A0316
:1002060079521205B5EF70030202A7C2927F147EDF
:10021600007D007C0012072BE4F5517556FF7557DB
:100226000375584F755903755AE87BFF7A03796051
:100236001205B5EF6054C2937F147E007D007C00EA
:1002460012072B7556FF75570375584F755901756B
:100256005AF47BFF7A0379871205B5EF602CC294B6
:100266007BFF7A0379B07D647C0012066D7556FFBC
:1002760075570375584F755900755A647BFF7A0395
:1002860079BF1205B5C2957F01227F647E007D008D
:100296007C0012072B0551E551C39403500302025B
:0F02A600210552E552C3940A50030201BD7F00A7
:0102B5002226
:0806E8008F5E8E5D8D5C8C5B62
:1006F000785B74FF120198EC4D4E4F600C00007F48
:09070000027E0FDEFEDFFC80E743
:0107090022CD
:08072B008F568E558D548C533E
:10073300785374FF120198EC4D4E4F600A7F6C7E24
:0707430091DEFEDFFC80E9FE
:01074A00228C
:0C07AE00155515551555155515551555C3
:0107BA00221C
:10079700D3EF9400EE9400400DE4FD0DBD1BFCEF7C
:0607A7001F70ED1E80EA48
:0107AD002229
:060541008B518A52895320
:10054700E4FCF554C2A07FB4FE120797D2A01207AD
:10055700AE1207AE1207AE1207AED2A020A04E30E1
:10056700A0FD20A0FDE4FCE4F55430A0FD1207AE89
:100577001207AE1207AEAB51E5532CF9E43552FA28
:1005870012011C25E012016230A012AB51E5532C79
:10059700F9E43552FA12011C440112016220A0FD50
:0D05A7000554E554C3940840C10CBC04BACF
:0105B4002224
:10070A008B608A618962E4FFEFC3955F5012AB6028
:10071A00AA61A9628F82758300ED1201740F80E8C5
:01072A0022AC
:1002C200020448E493A3F8E493A34003F68001F206
:1002D20008DFF48029E493A3F85407240CC8C3333D
:1002E200C4540F4420C8834004F456800146F6DF0C
:1002F200E4800B01020408102040809007C4E47ED1
:10030200019360BCA3FF543F30E509541FFEE49300
:10031200A360010ECF54C025E060A840B8E493A3C7
:10032200FAE493A3F8E493A3C8C582C8CAC583CAF2
:10033200F0A3C8C582C8CAC583CADFE9DEE780BEAA
:0107CA00002E
:10002600E709F608DFFA8046E709F208DFFA803EBC
:1000360088828C83E709F0A3DFFA8032E309F608A9
:10004600DFFA8078E309F208DFFA807088828C8311
:10005600E309F0A3DFFA806489828A83E0A3F608C5
:10006600DFFA805889828A83E0A3F208DFFA804C9F
:1000760080D280FA80C680D4806980F28033801076
:1000860080A680EA809A80A880DA80E280CA8033DF
:1000960089828A83ECFAE493A3C8C582C8CCC58357
:1000A600CCF0A3C8C582C8CCC583CCDFE9DEE78027
:1000B6000D89828A83E493A3F608DFF9ECFAA9F0A6
:1000C600EDFB2289828A83ECFAE0A3C8C582C8CCFC
:1000D600C583CCF0A3C8C582C8CCC583CCDFEADE15
:1000E600E880DB89828A83E493A3F208DFF980CC77
:1000F60088F0EF60010E4E60C388F0ED2402B40470
:100106000050B9F582EB2402B4040050AF23234516
:06011600822390007673C5
:10011C00BB010689828A83E0225002E722BBFE02E1
:09012C00E32289828A83E4932214
:10013500BB010CE58229F582E5833AF583E022507F
:1001450006E92582F8E622BBFE06E92582F8E222C9
:0D015500E58229F582E5833AF583E49322E3
:10016200BB010689828A83F0225002F722BBFE017C
:02017200F32276
:10017400F8BB010DE58229F582E5833AF583E8F0C1
:10018400225006E92582C8F622BBFE05E92582C86D
:02019400F22255
:100196007401FF3395E0FEFDFC080808E6CF2FF654
:1001A60018E6CE3EF618E6CD3DF618E6CC3CF6222D
:1003C6008B5B8A5C895DAB5EAA5FA96012011C60CB
:1003D60063AB5BAA5CA95D12011C605F855E6185EB
:1003E6005F628560638B648A658966AB61AA62A970
:1003F6006312011CFF6023AB64AA65A96612011C87
:100406006F7017042563F563E43562F562740125A0
:1004160066F566E43565F56580D1AB61AA62A963C8
:1004260012011C7002800D7401255DF55DE4355CDA
:10043600F55C809DAB5BAA5CA95D227B007A0079A6
:02044600002292
:00000001FF
